:020000040800F2
:10000000100500209D010008A5010008A7010008B7
:10001000A9010008AB010008AD01000800000000C4
:10002000000000000000000000000000AF01000818
:10003000B101000800000000B3010008751D0008B0
:10004000B7010008B7010008B7010008B7010008B0
:10005000B7010008B7010008C11100083D120008EF
:10006000B9120008B7010008B7010008B70100087D
:10007000B7010008B7010008B7010008B701000880
:10008000B7010008B7010008B7010008B701000870
:10009000B7010008B7010008B7010008B701000860
:1000A000B7010008B7010008B7010008B701000850
:1000B000B7010008111F0008B7010008B7010008C8
:1000C000B7010008B7010008B7010008B701000830
:1000D000B7010008ED240008B7010008B7010008C7
:1000E000B7010008B7010008B7010008B701000810
:1000F000B7010008B7010008B7010008B701000800
:10010000B7010008B7010008B7010008B7010008EF
:10011000B7010008B7010008B7010008B7010008DF
:10012000B7010008B7010008B7010008B7010008CF
:10013000B7010008B7010008B7010008B7010008BF
:10014000B7010008B7010008B7010008B7010008AF
:10015000B7010008B7010008B7010008B70100089F
:10016000B7010008B7010008B7010008B70100088F
:10017000B7010008B7010008B7010008B70100087F
:10018000B7010008B7010008DFF80CD000F0E8FD67
:1001900000480047ED33000810050020064880475E
:1001A00006480047FEE7FEE7FEE7FEE7FEE7FEE75C
:1001B000FEE7FEE7FEE7FEE7851D0008890100086F
:1001C000421E12F8013F002BFBD111F8013B02F84F
:1001D000013B002BF9D170470FB400B58DB010A9C9
:1001E00009900B9000914FF0FF300A9000200C9086
:1001F00005480690054807906A4609A80F9900F03F
:1002000009FC0DB05DF814FB310A00084F0A000824
:100210002DE9FF5F1D464FF0FF3BD5E901469146B2
:100220005F464FF00008A9697F1C01988847296A3A
:10023000824688470028F6D1BAF1FF3F0CD024F45B
:10024000C064002E19DD600614D5BAF12B0F09D059
:10025000BAF12D0F0ED103E0584604B0BDE8F09F6F
:1002600044F48064A9697F1C01988847761E824601
:10027000002E02DDBAF1300F03D0B9F1000F26D005
:1002800032E0A969761E44F400747F1C0198884707
:100290008246002E05DDBAF1780F06D0BAF1580F6C
:1002A00003D0B9F1000F10D01EE0B9F1000F02D059
:1002B000B9F1100F18D1A969761E24F400747F1CBF
:1002C000019888478246102002E0082000E00A20BA
:1002D000814609E008FB0908A969761E44F4007408
:1002E0007F1C019888478246002E05DD494650460E
:1002F00000F07BFB0028EDDAE96901988847A0054A
:1003000002D46FF00100A8E7E00725D1600613D5FD
:10031000600502D5C8F1000000E0404629680A1DCA
:100320002A600968220501D5087015E0220701D569
:10033000088011E008600FE02868011D296000684E
:10034000210502D580F8008006E0210702D5A0F83B
:10035000008001E0C0F8008038467EE72DE9FF4FBD
:10036000087883B09946FF2805D0491C2D2804D071
:100370000024002008E000200BE00124F9E700EB56
:10038000800003EB4000491C0B78FF2BF7D104B130
:10039000404200230293147819461D462D2C01D0AB
:1003A0002B2C04D1521C2D2C13D000240294AA46CD
:1003B0001478FF2C0FD00A25A3FB057801FB0581DB
:1003C0004FF0000C03FB0C11521CE3194AEB010126
:1003D000EEE70124EAE7814453EA010002D019F56F
:1003E000C87F06DA03980021C0E9001107B0BDE814
:1003F000F08F0025AE4E2F46DFF8B882184600F089
:1004000072FCCDE90001B9F1000002DAC9F1000483
:1004100000E004460023A74A1AEB030B42EB045A00
:1004200012E0E00707D02A4633463846414600F03E
:1004300045F9074688462A4633461046194600F0D5
:100440003DF905460E466410002CEAD1DDE90001B5
:10045000B9F1000F5A46534606DA00F0A1F93A46C0
:10046000434600F09DF905E000F028F93A4643467E
:1004700000F024F9029A0AB181F00041039AC2E91E
:100480000001B3E72DE9FF4F1F468DB0D7E90146C4
:100490004FF0FF382E2045464FF000090B90B96908
:1004A0006D1C0E988847396A824688470028F6D125
:1004B000BAF1FF3F0AD024F4D064002E11DDBAF166
:1004C0002B0F08D0BAF12D0F0BD102E0404611B02E
:1004D0008DE744F48064B9696D1C0E9888478246A4
:1004E000761E6946600501D52D2000E02B208DF891
:1004F000000001F1010B0DF1200809E0B9696D1C44
:100500000E98884782460F9844F40074761E056062
:10051000002E02DDBAF1300FF0D00B998A453ED1A2
:1005200044F0800406E00F99681CA9F1010944F425
:1005300000740860B9696D1C761E0E988847824663
:100540003028F0D02BE00B998A4505D1200603D442
:1005500044F08004761E18E0504602F009FA08B311
:100560000DF11301761E44F400748B4508D2AAF1F4
:1005700030000BF8010B200607D5A9F1010003E0BC
:10058000200602D409F101008146A00502D50F9989
:10059000681C0860B9696D1C0E9888478246002E59
:1005A000D1DC53E0002E51DDBAF1650F02D0BAF173
:1005B000450F4BD1A00549D5B9696D1C24F4407491
:1005C000761E0E9888478246002E0CDD2B2804D01C
:1005D000BAF12D0F07D144F48074B9696D1C0E98DF
:1005E00088478246761EE00501D52D2100E02B21AB
:1005F00008F8011BCDF82C8021E00DF12901761EB1
:1006000044F4007488450CD2AAF1300010F0FF00C9
:1006100088F8000002D10B99884509D908F1010832
:1006200006E0E00501D5244801E042F20F70814662
:10063000B9696D1C0E98884782460F980560002E98
:1006400004DD504602F094F90028D6D1F9690E98DD
:100650008847FF208BF8000088F8000000200690F3
:1006600007904B466A4608A906A8FFF777FEA00543
:1006700002D46FF001002AE714F0240F0AD0E0073B
:1006800014D1DDE906123868031D3B600068C0E93B
:1006900000120BE0DDE9060100F034F90146E00745
:1006A00004D13868021D3A600068016028460EE7F0
:1006B000000014400000F03FF1D8FFFF2DE9FE4F8D
:1006C00081EA030404F0004421F0004100944FF05B
:1006D000000B23F0004350EA01045ED052EA030409
:1006E0005BD0C3F30A54C1F30A552C44A4F2F3348B
:1006F0000194A0FB0254C1F3130141F48011C3F330
:10070000130343F4801301FB024400FB034E840AED
:10071000970A44EA815447EA8357A4FB0768029585
:100720008D0A05FB07854FEA932C04FB0C54270523
:10073000029D4FEA065847EA1637B5EB08056EEBFF
:10074000070C870E920E47EA811742EA8312A7FB35
:100750000201B6EB0B0164EB00042B0D43EA0C33F2
:100760005E1844EB1C50DA465146E7FB0201C5F324
:1007700013044FEA0B3343EA14534FEA0432019C4B
:1007800043EA0603A4F10C040294009CCDE900B4F2
:1007900000F0B4F903B0BDE8F08F00200146F9E79E
:1007A0002DE9F04D81EA030404F0004B21F00045EF
:1007B00014464FF0000A23F0004150EA050220D011
:1007C00054EA01021DD0C5F30A570246C5F31303CC
:1007D000C1F31300C1F30A5640F4801543F48013AB
:1007E000A7EB0608101BD64608F2FD3873EB050090
:1007F00002D308F1010801E092185B41B8F1000F43
:1008000003DA00200146BDE8F08D00204FF480118E
:10081000064684460EE0171B73EB050705D3121B33
:1008200063EB050306434CEA010C49084FEA30002C
:1008300092185B4150EA0107EDD152EA030012D051
:1008400082EA040083EA0501084305D0101BAB418E
:1008500006D20122002306E000224FF0004302E00E
:100860006FF0010253101AEB06004CEB085110EB2D
:100870000A0041EB0B01BDE8F04D00F030B90EB5B8
:10088000C10F80EAE0700844CA07002140F23343F8
:100890008DE80E000A460B4600F030F903B000BDAB
:1008A00070B5C1F30A5201F000450024C1F31301F1
:1008B00040F2FF3341F480119A4201DA002070BD0A
:1008C00040F233439A42A2F2334203DC524200F038
:1008D0007CF800E090402C43F1D0404270BD00F025
:1008E000004230F000400AD0C10D01F56071C0F344
:1008F000160042EA0151C208400711437047002028
:100900000146704701F0004330B421F0004150EA45
:10091000010206D00A0DA2F56072C1F31301002A8C
:1009200002DC30BC00207047440F44EAC104C1001F
:10093000E01830BC00EBC25000F09AB830B50B465E
:10094000014600202022012409E021FA02F59D42FF
:1009500005D303FA02F5491B04FA02F52844151ED3
:10096000A2F10102F1DC30BD2DE9F05F0546002067
:1009700092469B4688460646814640241BE0284610
:1009800041464746224600F020F853465A46C01AD0
:10099000914110D311461846224600F0F3F92D1A62
:1009A00067EB01084F4622460120002100F0EAF9DA
:1009B00017EB00094E41201EA4F10104DFDC48467C
:1009C00031462A464346BDE8F09F202A04DB203A00
:1009D00021FA02F00021704721FA02F3D040C2F15F
:1009E000200291400843194670473A2800D2303817
:1009F00020F02002412A01D3A2F13700884201D31E
:100A00004FF0FF3070470000026811441378016016
:100A100018467047D16004495161044911620021B0
:100A20001161114600F0D4B9090A0008C70D000889
:100A3000426842B1016811F8013B23B1521EC0E97E
:100A40000012184670470121C160881E7047426835
:100A50005AB1C368016843B983688B4205D0491E07
:100A6000521CC0E90012002070474FF0FF30704761
:100A70000029A8BF7047401C490008BF20F00100B2
:100A8000704710B4B0FA80FC00FA0CF050EA010490
:100A900004BF10BC704749B1CCF1200421FA04F422
:100AA00011FA0CF118BF012121430843A3EB0C01FB
:100AB000CB1D4FEA00614FEA102042BF002010BC5E
:100AC000704700EBC35010440029A4BF10BC70470E
:100AD000401C490008BF20F0010010BC704710B551
:100AE000141E73F1000408DA401C41F10001921851
:100AF0005B411A4301D120F0010010BD2DE9F04DFA
:100B000092469B4611B1B1FA81F202E0B0FA80F24E
:100B10002032904600F036F904460F4640EA0A00BB
:100B200041EA0B0153465A46084313D0114653EA93
:100B3000010019D0C8F140025046FFF746FF0546B4
:100B40000E4650465946424600F01CF9084305D06F
:100B5000012004E020463946BDE8F08D0020054321
:100B600046EAE0762C4337430A986305E40AA0EB93
:100B700008000022FD0A44EA47540A3002D500204A
:100B80000146E9E7010510196941DDE90845001949
:100B90006941BDE8F04DA2E72DE9FE4F804681EAAC
:100BA0000300C00F0C46009021F0004123F00045E7
:100BB000B8EB0200A94105D24046214690461C46AA
:100BC0000B46024623F00040104347D0270DC7F3E1
:100BD0000A00C3F30A510290401A019040286BDAD0
:100BE000C3F3130040F4801B0098924620B1002309
:100BF000D2EB030A63EB0B0B01985946C0F140029C
:100C0000504600F0BFF806460D4650465946019A38
:100C100000F0C7F810EB08006141002487EA115288
:100C200084EAE7731A4340D0009A62B3019A012A1A
:100C30004FEA075215DC001B61EB02014FF0004246
:100C400002EA0752CDE90042001C41F5801132460C
:100C50002B46FFF753FF03B0BDE8F08F4046214617
:100C6000F9E7001B61EB0201001C41F5801300183D
:100C70005B412018A2F5001747EB030140EAD5704D
:100C8000B6196D4111E06D084FEA360645EAC075A8
:100C90004FEA0752001B61EB0201001C41F5801175
:100CA00049084FEA30000019514132462B4603B043
:100CB000BDE8F04FFFF713BF00980122400000236A
:100CC000D0EB020263EBE073009821464FEAE07438
:100CD000B8EB000061EB0401E9E783F000435BE758
:100CE00081F0004158E70EB540F2334202920022F3
:100CF000CDE900221346FFF701FF03B000BDC1F3A9
:100D00000A52C1F3130140F2FF3341F480119A42B9
:100D100002DA00200146704740F233439A42A2F2C1
:100D2000334202DC5242FFF750BE00F02BB8000005
:100D300030B5041E71F1000404DB4FF00044404262
:100D400064EB0101141E73F1000405DB1C464FF037
:100D50000043524263EB0403994208BF904230BD06
:100D6000064C074D06E0E06840F0010394E80700F8
:100D700098471034AC42F6D3FFF70AFA4C38000813
:100D80006C380008202A04DB203A00FA02F1002027
:100D900070479140C2F1200320FA03F319439040B9
:100DA0007047202A06DBCB17203A41FA02F043EACB
:100DB000E07306E041FA02F3D040C2F12002914014
:100DC000084319467047C0B24FF4F05100F096B98D
:100DD0002DE9F34F8BB04FF0000801F10C000C46E9
:100DE0004FF0010B46460DF1080A0190626901219E
:100DF00001989047051E2DD0252D2CD0216A8847BB
:100E0000C0B16269012101989047216A8847002892
:100E1000F7D1411E62690198904700E0761CA169F4
:100E20000B988847216A88470028F7D1E1690B9819
:100E30008847DBE7A1690B9888470746A84201D19C
:100E4000761CD3E7E1690B9888477F1C02D1B8F183
:100E5000000F6FD046E1002762693D463946019890
:100E600090472A2804D16269012101989047012501
:100E7000DFF884926269012101989047A0F1300166
:100E80000A290AD24F45E5DC07EB870100EB410751
:100E9000303FDFD445F01005ECE7E90601D46FF0F0
:100EA00000476C280AD04C2814D0682815D06A282E
:100EB0000DD074281CD07A281AD01DE06269012157
:100EC000019890476C2802D045F0040514E045F0E5
:100ED00002050DE045F020050AE062690121019854
:100EE0009047682802D045F0080505E045F4006504
:100EF0006269012101989047C4E9015765283DD0F6
:100F000019DC58287AD00CDC452837D004DC252899
:100F100026D0412831D131E046282FD047282CD186
:100F20002CE05B2877D0612828D063287CD0642807
:100F300023D15AE0D0E06F2848D008DC66281DD0C5
:100F400067281BD0692821D06E2816D127E0702889
:100F500045D0732868D0752847D078280DD14DE04A
:100F6000A1690B988847054625283FF469AFE169D8
:100F70000B9888476D1C3FF46AAFB3E023466A467E
:100F80006FF001000B99FFF77DFA9EE045F04000FD
:100F90006060A80723464FF0000236D43EE0E80721
:100FA0007FF447AF2068011D21600068290501D545
:100FB00006701BE7290701D5068017E7A90703D5A7
:100FC000F117C0E9006111E706600FE745F0400046
:100FD0006060A80723464FF0080216D41EE040F6D2
:100FE0000E0125EA0100606016E045F040006060F7
:100FF000A80723464FF00A0207D40FE045F040004F
:101000006060A80708D5234610226FF001000B99F5
:10101000AFF3008059E007E0234610226FF0010093
:101020000B99FFF7F5F850E04FF000094F464B469B
:10103000632802D05B2806D040E0E80601D40120F6
:10104000A06001273AE062690121019890475E287B
:1010500005D14FF00109626949460198904721691D
:1010600039B900210A46534643F82120491C082972
:10107000FADBB0B3216969B9C11700EBD162531132
:101080000AEB830122F01F02821A01200B689040B4
:1010900003430B6062690121019890475D28E8D104
:1010A000B9F1000F09D00020514651F82020D24359
:1010B00041F82020401C0828F7DB02AB22460097AD
:1010C0006FF001000B99AFF3008000280CDA401C90
:1010D00008D1BBF1000F05D04FF0FF300DB0BDE8D7
:1010E000F08FFFE74046F9E7E90701D108F1010871
:1010F00006444FF0000B79E6CCCCCC0C7F2801D90C
:10110000002208E0064A02EB5002C007127800D124
:10111000120902F00F0201209040084070470000C1
:101120000C38000810B500F0EBF910BD1CB501211A
:10113000102000F0E5FC01208DF8040000208DF85F
:1011400006004FF47C60009000208DF8070003201B
:101150008DF8050069460D4800F030FA0121084677
:1011600000F0CEFC01208DF8040000208DF8060070
:101170004FF40070009000208DF8070003208DF8D8
:1011800005006946024800F019FA1CBD0010024033
:10119000000002400EB50121102000F0C1FC5320D8
:1011A000ADF800004FF6FF7001906946034801F06A
:1011B00021F90121014800F0BCFF0EBD00100040E4
:1011C00010B5012000F046F938B30121154800F0B0
:1011D00060FA10BB322001F0DDFF0121114800F060
:1011E00058FAD0B900BF01210E4800F052FA002889
:1011F000F9D00D480078401C0B4908700B48007866
:101200000978884209D0012009490870002009495D
:1012100008700548007805490870012006490860F3
:1012200010BD0000000C02409C0000209E00002029
:10123000A2000020A3000020143C014010B50220B1
:1012400000F008F938B30221154800F022FA10BB6B
:10125000322001F09FFF0221114800F01AFAD0B9A4
:1012600000BF02210E4800F014FA0028F9D00D4802
:101270000078401C0B4908700B48007809788842B8
:1012800009D0002009490870012009490870054863
:1012900000780549087002200649086010BD00006A
:1012A000000C02409D0000209F000020A2000020B2
:1012B000A3000020143C014010B5042000F0CAF83F
:1012C000C0B104210D4800F0E4F998B9322001F0D2
:1012D00061FF0421094800F0DCF958B900BF04217E
:1012E000064800F0D6F90028F9D005480078401CDF
:1012F0000349087004200349086010BD000C024037
:10130000A0000020143C01401CB50121082000F081
:10131000F7FB0121880300F013FC00208DF8040086
:1013200001208DF80700009069460F4800F046F94B
:101330000021032000F088FC01200C4908600020F7
:1013400008710C20487101208871084600F08EF861
:101350000620074908700320487088700120C87073
:10136000084600F02BFB1CBD000C0240940000203E
:10137000900000201CB50121082000F0C1FB0121D4
:10138000880300F0DDFB00208DF8040001208DF8BB
:1013900007000220009069460F4800F00FF9012174
:1013A000032000F051FC02200C4908600020087165
:1013B0000C20487101208871084600F057F807207A
:1013C000074908700320487088700120C8700846DB
:1013D00000F0F4FA1CBD0000000C02409400002054
:1013E000900000201CB50121082000F089FB01219C
:1013F000880300F0A5FB00208DF8040001208DF883
:1014000007000420009069460F4800F0D7F8022139
:10141000032000F019FC04200C490860002008712A
:101420000C20487101208871084600F01FF8082040
:10143000074908700320487088700120C87008466A
:1014400000F0BCFA1CBD0000000C0240940000201B
:101450009000002001460020034A12680A400AB1A9
:10146000012000E000207047143C01400021234986
:101470008279002A3AD00A46126803689A430B46DA
:101480001A600A1D126803689A430B1D1A600279DC
:1014900011440A6803681A430A60184A083212683D
:1014A00003689A43154B08331A601A1D12680368C3
:1014B0009A43124B0C331A604279102A0ED11A1F2C
:1014C000126803681A430D4B08331A601A1D12681C
:1014D00003681A43094B0C331A600DE0074942793F
:1014E00011440A6803681A430A6005E0027911444E
:1014F0000A6803689A430A6070470000003C014094
:1015000000B589B00121082000F00AFB012108463E
:1015100000F0F6FA02220021264800F097F8022295
:101520000121244800F092F80320019002208DF858
:10153000080003208DF8090000208DF80A00012022
:101540008DF80B0001A91B4800F038F80020ADF819
:1015500018004FF6FF7007900020ADF82000ADF89E
:101560001A0006A9144800F045FF0420ADF80C004D
:101570000220ADF80E000720ADF814000120ADF8F0
:10158000100003A90C4800F024FE02231A46032190
:10159000094800F0E9FD01221146074800F050FE1D
:1015A0000121054800F0C5FD0020034924310860F1
:1015B00009B000BD00000240000C0040F0B50A4632
:1015C00000210023002400BF3DE0012505FA01F3BE
:1015D000156805EA03049C4234D105684F000326D0
:1015E000BE40B543056015794E00B54006683543E9
:1015F00005601579012D02D01579022D16D1856867
:101600004F000326BE40B543856055794E00B54076
:10161000866835438560456801268E40B543456040
:10162000456896798E40B6B235434560C5684F002F
:101630000326BE40B543C560D5794E00B540C668A7
:101640003543C560491C1029BFD3F0BDF0B5002358
:1016500000244D07ED0E02FA05F3CE1000F120052F
:1016600055F826504E07F70E0F26BE40B543CF1053
:1016700000F1200646F82750CE1000F1200555F85D
:10168000265045EA0304CE1000F1200545F8264017
:10169000F0BD0246002013690B400BB1012000E0B1
:1016A0000020704741837047018370470AB101836E
:1016B00000E041837047000010B504461CB10120D2
:1016C0000449C87002E000200249C87000F00AF81E
:1016D00010BD0000A400002010B5012000F070F83B
:1016E00010BD000010B500240EE00B48007840103B
:1016F000094908700948005D20B10846007840F0AB
:1017000080000870601CC4B2082CEEDB0122024984
:101710004E2000F0C8F810BDAC000020A40000204E
:1017200010B5322001F036FD00F044F9002404E049
:1017300000201B490855601CC4B2082CF8DBFFF7D9
:10174000D1FF002016490870FFF7CCFF0020144994
:101750004870FFF7C7FF032000F04AF8052001F0AA
:1017600019FD032000F044F8012001F013FD0320CF
:1017700000F03EF8012001F00DFD022000F038F8E5
:10178000012001F007FD282000F01AF80C2000F0DD
:1017900017F80E2000F014F8012000F011F810BD29
:1017A000A400002010B5044607E0207820B114F80A
:1017B000010B00F0E7F800E000E0F6E700BF10BD25
:1017C00010B5044600F0A8F8002008490870FFF79B
:1017D00089FF002005494870FFF784FF201100F0C1
:1017E00007F8204600F004F810BD0000A400002017
:1017F00010B5044604F0080018B101201749C8715B
:1018000002E000201549C87104F0040018B101205D
:101810001249887102E000201049887104F002002A
:1018200018B101200D49487102E000200B494871B0
:1018300004F0010018B101200849087102E00020FD
:1018400006490871012005498870FFF74BFF002009
:1018500002498870FFF746FF10BD0000A400002079
:101860002DE9F04107460D46164601F02BFD38469E
:1018700001F068FD20B901F049FD0020BDE8F081CC
:10188000002405E0012001F0CDFC2855601CC4B205
:10189000701EA042F6DC002001F0C4FC285501F0C7
:1018A00035FD0120EAE72DE9F04107460D461646D1
:1018B00001F008FD384601F045FD20B901F026FD94
:1018C0000020BDE8F081002409E0285D01F03AFD28
:1018D00018B901F01BFD0020F3E7601CC4B2B4424C
:1018E000F3DB01F013FD0120EBE770B505460E4672
:1018F0000DB9002408E0012D01D1402404E0022D9F
:1019000001D1142400E0542444EA0600C4B244F097
:101910008000FFF755FF70BD08B501201849087118
:1019200048718871C871FFF7DDFE00201449087006
:10193000FFF7D8FE012012494870FFF7D3FE00BF21
:1019400001200F498870FFF7CDFE012269464F2024
:10195000FFF786FF00200A498870FFF7C3FE0120C9
:1019600007498870FFF7BEFE002005498870FFF721
:10197000B9FE9DF8000000F008000028E0D108BD85
:10198000A400002010B50446FFF7C6FF0120084957
:101990000870FFF7A7FE002005494870FFF7A2FE78
:1019A0002011FFF725FF2046FFF722FF10BD0000A2
:1019B000A400002010B501F011FC10BD70B500218D
:1019C00000230F22C4781CB3174C246804F4E0648D
:1019D000C4F5E064C4F30721C1F10404E3B20A4191
:1019E00044789C40E1B28478144021430C07210ED6
:1019F0000E4C05786155047804F01F050124AC40B5
:101A000005786D11AD0005F1E025C5F8004109E04C
:101A1000047804F01F050124AC40054D06787611CA
:101A200045F8264070BD00000CED00E000E400E049
:101A300080E100E000B58BB00121084600F080F89D
:101A40000121084600F05CF8A720ADF820006320D3
:101A500009900020ADF82800ADF8220008A926481A
:101A600000F0C8FC6020ADF80C000120ADF80E00BD
:101A70000020ADF818000420ADF810000020ADF8EB
:101A80001A0005904FF4A060019002208DF8080024
:101A900003208DF8090000208DF80A008DF80B0056
:101AA00001A91648FFF78AFD01220A211348FFF712
:101AB000CDFD012208211148FFF7C8FD03A90E48FA
:101AC00000F010FC08210C4800F05CFC03A90A4857
:101AD00000F0C0FB0821084800F0FAFB012106488D
:101AE00000F018FB0121044800F023FB012102480B
:101AF00000F02BFB0BB000BD0000014000000240D5
:101B000029B1064A12680243044B1A6004E0034AF2
:101B100012688243014B1A6070470000303802405F
:101B200029B1064A12680243044B1A6004E0034AD2
:101B300012688243014B1A6070470000403802402F
:101B400029B1064A12680243044B1A6004E0034AB2
:101B500012688243014B1A6070470000443802400B
:101B6000F0B5002100220024022500260223324F76
:101B70003F6807F00C0121B1042905D0082937D1AD
:101B800005E02E4F076036E02D4F076033E02A4F07
:101B90003F1F3F68C7F38056274F3F1F3F6807F03E
:101BA0003F036EB1264FB7FBF3F7DFF88CC0ACF103
:101BB000040CDCF800C0CCF3881C07FB0CF40CE030
:101BC0001E4FB7FBF3F7DFF870C0ACF1040CDCF884
:101BD00000C0CCF3881C07FB0CF4174F3F1F3F6875
:101BE000C7F301477F1C7D00B4FBF5F7076002E0F7
:101BF000124F076000BF00BF0F4F3F6807F0F001B2
:101C00000909104F7A5C0768D74047600A4F3F6860
:101C100007F4E051890A0B4F7A5C4768D740876028
:101C2000054F3F6807F46041490B064F7A5C4768EF
:101C3000D740C760F0BD0000083802400024F4001F
:101C400000127A00AD00002030B500228B071C0F77
:101C50000F2303FA04F20B4B8C1053F824309343F8
:101C6000084C8D1044F8253023468C1053F824304E
:101C70008C07240F00FA04F42343024C8D1044F81F
:101C8000253030BD083801400CB50020019000908F
:101C90003448006840F480303249086000BF314861
:101CA000006800F4003000900198401C01900098FA
:101CB00018B90198B0F5A04FF1D12A48006800F496
:101CC000003010B10120009001E000200090009849
:101CD000012846D123484030006840F08050214917
:101CE000403108602048006840F440401E490860C8
:101CF0001C48083000681B49083108600846006825
:101D000040F4004008600846006840F4A0500860B5
:101D10001648091F0860081F006840F08070091FFE
:101D2000086000BF0F48006800F000700028F9D07C
:101D300040F205700E4908600A480830006820F03B
:101D400003000849083108600846006840F00200B6
:101D5000086000BF03480830006800F00C00082845
:101D6000F8D10CBD00380240007000400854400714
:101D7000003C024002480068401C0149086070476E
:101D80000000002010B51548006840F470001349A9
:101D900008601348006840F0010011490860002005
:101DA0000F49083108600E4800680E4908400C4988
:101DB00008600D48091D0860081F006820F4802095
:101DC000091F0860002006490C310860FFF75CFF1E
:101DD0004FF0006001498039086010BD88ED00E0D7
:101DE00000380240FFFFF6FE10300024F0B50C462C
:101DF000154600210022068C4FF6FE773E400684F1
:101E0000018B028C4FF60C7631407E1C06EA0316DD
:101E10002E4331434FF6F576324044F0010632430B
:101E200001830284F0BDF0B50C4615460021002266
:101E30000026078C4FF6EF7C07EA0C070784018B1E
:101E4000028C4FF6FF7707EA041640F6FF47394049
:101E50004FF6FF7707EA033739434FF6FF7707EA74
:101E6000052739434FF65F773A4046F010073A436B
:101E700001830284F0BDF0B50C4615460021002216
:101E80000026078C4FF6FF6C07EA0C070784818B4E
:101E9000028C4FF6FF7707EA04264FF60C7739409D
:101EA0004FF6FF7707EA03172F4339434FF2FF57E7
:101EB0003A4046F480773A4381830284F0BDF0B51E
:101EC0000C461546002100220026078C4EF6FF7CAA
:101ED00007EA0C070784818B028C4FF6FF7707EA2D
:101EE000043640F6FF4739404FF6FF7707EA0527EB
:101EF00039434FF6FF7707EA0337394345F6FF7753
:101F00003A4046F480573A4381830284F0BD000092
:101F100010B52DED088B0121664800F049F9002825
:101F20007CD00121634800F001F96348006800B2E9
:101F3000624908800846008861490988401A00B251
:101F4000604908805D48B0F900005D4908805D483F
:101F5000B0F90000002813DA5A48B0F90000FEF783
:101F60008EFC41EC190B9FED580B53EC102BFEF738
:101F7000A5FB41EC180BFEF793FC00B25149088019
:101F80005048B0F90000FEF77AFC41EC1B0B9FEDC6
:101F9000500B53EC102BFEF703FC41EC1A0B9FED9A
:101FA0004E0B53EC102BFEF789FB41EC190B9FED08
:101FB0004C0B53EC102BFEF781FB41EC180BFEF79A
:101FC000A1FC494908600846D0ED000A474890ED59
:101FD000000A01F07DFB464880ED000A90ED000A02
:101FE000DFED440AB4EEE00AF1EE10FA04DD9FEDF5
:101FF000410A80ED000A04E03D4890ED000A80EDC2
:10200000000A3B4890ED000AB5EEC00AF1EE10FA66
:1020100005D29FED390A80ED000A05E047E034481B
:1020200090ED000A80ED000A344890ED000AF7EECA
:10203000000AB4EE600AF1EE10FA22D130480078BE
:1020400001281ED1012201022E48FFF72FFB00229A
:1020500080212C48FFF72AFB254890ED000ADFED90
:102060002A0A20EE200ADFED280A80EE201ABCEEB4
:10207000C10A10EE100A254948630120244908705E
:1020800015E0002022490870012280211D48FFF739
:102090000DFB9FED190A164880ED000A00224FF44F
:1020A00080711848FFF702FB002018494863BDEC17
:1020B000088B10BD00040040240C004004000020E8
:1020C0002600002024000020000000000000F0BFD7
:1020D0000000000000D0CA4000000000000059408D
:1020E0000000000000004E40080000206C000020AE
:1020F000140000200000BE42000000006400002028
:1021000060000020001002400000C84200000140B2
:102110002800002021B1028842F08002028004E001
:1021200002884FF67F731A4002807047CA430282CA
:10213000704721B1028842F00102028004E0028867
:102140004FF6FE731A400280704731B1B0F8442058
:1021500042F40042A0F8442005E0B0F84420C2F365
:102160000E02A0F844207047F0B50C4615461E46F6
:102170000021002200230189028B038C4FF6F8779F
:10218000394021434FF6FC473A4040F201173A43A9
:102190004FF6DD773B404FF6FF7707EA06172F43F0
:1021A0003B43018102830384F0BD0146486A7047C6
:1021B00030B50246002000230024158A05EA0103F9
:1021C000958905EA010413B10CB1012000E000205B
:1021D00030BD70B505460C46208850B92389A288C9
:1021E00061882846FFF702FEE188284600F0D5F80E
:1021F00025E0208804280AD12389A28861882846FE
:10220000FFF711FEE188284600F0D0F817E020889B
:1022100008280AD12389A28861882846FFF72BFE67
:10222000E188284600F0CFF809E02389A288618878
:102230002846FFF744FEE188284600F0CDF870BD3F
:102240001AB183890B43838102E083898B438381A5
:102250007047000070B5002400220023058C4FF663
:10226000FE7635400584028C8388048B4FF68F758B
:102270002C40B51E2C400D882C43751E2A408D899C
:102280002A434D882A43104DA84202D00F4DA84240
:1022900013D14FF6F7752A40CD892A434FF6FB75C7
:1022A0002A408D882A434FF6FF652B404FF6FF5595
:1022B0002B400D8A2B434D8A2B43838004838D68EA
:1022C0004563028470BD000000000140000401402D
:1022D0000A460021018B4FF6F77319401143018321
:1022E0007047000070B5002400220023058C4FF6D3
:1022F000FF6635400584028C8388848B4FF68F758A
:102300002C404FF6FC752C400D882C434FF6FF55A2
:102310002A408D894FF6FF7606EA05252A434D8827
:1023200006EA05252A43154DA84202D0144DA842BD
:102330001DD14FF2FF752A40CD894FF6FF7606EA90
:1023400005252A434FF6FF352A408D8806EA0525E4
:102350002A434EF6FF752B404DF6FF752B400D8A34
:1023600006EA05152B434D8A06EA05152B438380A3
:1023700084838D68C563028470BD00000000014045
:10238000000401400A460021818B4FF6F773194083
:1023900011438183704741627047028B4FF6F3739C
:1023A0001A400283028B0A4302837047028B4FF26A
:1023B000FF331A400283028B4FF6FF7303EA0123B7
:1023C0001A4302837047828B4FF6F3731A4082835D
:1023D000828B0A4382837047828B4FF2FF331A400D
:1023E0008283828B4FF6FF7303EA01231A438283B1
:1023F0007047000000220288184B98420ED0184BFC
:1024000098420BD0B0F1804F08D0164B984205D0BF
:10241000154B984202D0154B984204D14FF68F735A
:102420001A404B881A43124B984207D0114B9842DE
:1024300004D04FF6FF431A400B891A4302804B68C1
:10244000C3620B880385054B984202D0044B984227
:1024500001D18B7A038601238382704700000140FB
:10246000000401400004004000080040000C00404F
:1024700000100040001400401FB501210220FFF7AA
:102480004FFB1748006840081649B0FBF1F0401EAA
:1024900080B2ADF8040042F20F7002900020ADF857
:1024A0000C00ADF8060001A90F48FFF7A3FF0122B9
:1024B00011460D48FFF7C4FE01210B48FFF739FE16
:1024C0001D208DF8000000208DF801008DF802001D
:1024D00001208DF803006846FFF770FA1FBD000069
:1024E0004000002040420F00000400401CB540F2B4
:1024F0002551274800F092F8012843D100BF202140
:10250000234800F07EF80028F9D0214800F040F977
:1025100020490880084600880A280AD00846017821
:102520001D4802780078401C1B4B18701B488154D2
:1025300028E01B481B491C4B1C4ACDE900101CA17C
:102540001648FDF749FE042801D1012000E00020D3
:102550000446164890ED000A184880ED000A12481B
:102560000078174908700F4890ED000A154880ED73
:10257000000A0B4890ED000A134880ED000A00F0B5
:102580009BFD00BF40F22551014800F01FF81CBD23
:10259000001001407200002054000020DE000020E6
:1025A0007C000020780000208000002074000020C3
:1025B00025662C25642C25662C2566006C000020E1
:1025C00060000020640000206800002010B5002298
:1025D000002340F66A14A14200D100BF0A12012470
:1025E0009440A3B2DC43048010BD21B1828942F43F
:1025F0000052828104E082894DF6FF731A40828185
:10260000704702460020B1F5007F00D100BF13885B
:102610000B400BB1012000E00020704770B502466E
:10262000002400230025002040F66A16B14200D1A4
:1026300000BFC1F3421501F01F03012606FA03F3A0
:10264000012D02D19689334006E0022D02D1168A6F
:10265000334001E0968A33400C12012606FA04F456
:102660001688344013B10CB1012000E0002070BD89
:10267000F0B50346002400260025002040F66A1726
:10268000B94200D100BF1846C1F3421401F01F0641
:10269000012707FA06F5012C01D10C3004E0022CC9
:1026A00001D1103000E014301AB107682F430760E1
:1026B00002E00768AF430760F0BD00002DE9FF4767
:1026C00005460E460024A14600BFA046B08900B1D1
:1026D00000BF2C8A24F44054F08804432C82AC8937
:1026E00041F20C608443B088318908437189084302
:1026F0000443AC81AC8A24F44074B0890443AC82B6
:102700006846FFF72DFA2048854202D01F488542CF
:1027100002D1DDF80C9001E0DDF80890A88900F402
:10272000004040B109EBC90000EB091031684900D5
:10273000B0FBF1F707E009EBC90000EB09103168C5
:102740008900B0FBF1F76420B7FBF0F00401200929
:10275000642101FB1078A88900F4004040B13220C8
:1027600000EBC800B0FBF1F000F00700044308E004
:10277000322000EB08106421B0FBF1F000F00F00F4
:1027800004432C81BDE8FF87001001400014014084
:1027900001468888C0F308007047C1F308028280B0
:1027A000704700000FB4084B10B504A902AA0398A3
:1027B00000F0E6F8044602A9002000F078FC20466C
:1027C00010BC5DF814FB0000AF30000802E008C840
:1027D000121F08C1002AFAD170477047002001E09B
:1027E00001C1121F002AFBD1704700002DE9FF5FD5
:1027F00082B00021DDE90430020DDDF840B0034372
:1028000018D044F61050A2F2FF324243151411982A
:1028100001281FD0A5EB0B00401C5FEA000A4FF017
:1028200000064E4FDFF83891B046504615D5CAF134
:10283000000413E0119801244AA3012801D16FEA92
:102840000B010298119AC0E90031C0E9024206B0BA
:10285000BDE8F09FCBF10000DFE704460021404ACD
:10286000491842EB0450CDE9001012E0E00707D010
:1028700032463B4640464946FDF720FF80468946A2
:1028800032463B4610461946FDF718FF06460F46EE
:102890006410002CEAD1DDE90401DDE90023BAF17E
:1028A000000F06DAFDF70AFF42464B46FDF706FF2A
:1028B00005E0FDF775FF42464B46FDF771FF044604
:1028C0000E460022284BFEF733FA03D84FF0FF30B4
:1028D000014607E00022254B20463146FEF75CF911
:1028E000FEF70DFA102409E0002C0ADB0A2200236F
:1028F000FEF73AF8039B30321A55641E50EA010283
:10290000F2D1641C039AC4F111031444119A012AF0
:1029100003D0012208430DD10AE0084304D000206F
:102920004FF0110B119072E7A3EB0B056D1E0DE03C
:102930005B4504DD4FF0000205F1010504E003DA18
:102940004FF00002A5F10105002AECD00298119980
:10295000C0E90231C0E9004579E7000000001440F9
:102960000000F03F300000000000F0430000E03FB6
:1029700030380A2801D2012070470020704700003B
:102980002DE9FF4F95B09B468946064600250FE28C
:10299000252877D100242746F84A0121059400E034
:1029A000044316F8013F203B01FA03F01042F7D12F
:1029B00030782A2811D06FF02F033078A0F1300240
:1029C000092A16D8059A44F0020402EB820203EBAE
:1029D00042021044761C0590EFE759F8042B05924B
:1029E000002A03DA504244F40054059044F00204F3
:1029F000761C30782E2816D116F8010F44F0040406
:102A00002A280DD06FF02F023078A0F13003092B67
:102A100009D807EB870302EB4303C718761CF3E7DB
:102A200059F8047B761C30786C280FD006DC4C28D3
:102A300017D068280DD06A2814D104E0742810D06B
:102A40007A280FD10DE044F400140AE044F4801415
:102A500001E044F440147278824202D104F58014FB
:102A6000761C761C307866280BD013DC582877D07B
:102A700009DC002875D04528F6D04628F4D0472830
:102A80001AD19DE118E0632835D0642879D06528F3
:102A900012D195E1702873D008DC6728F1D069283D
:102AA0006FD06E280DD06F2806D1B5E073282CD0DA
:102AB000752875D0782874D05A46179990476D1CA0
:102AC00075E1C4F30250022809D003280DD0D9F8CB
:102AD000001004280DD00D6009F1040967E1D9F850
:102AE0000010EA17C1E90052F6E7D9F800100D808E
:102AF000F2E70D70F0E719F8041B8DF800100020C4
:102B00008DF80100EA46012003E059F804AB4FF0CC
:102B1000FF3061074FF0000102D40DE008F1010120
:102B20008846B9420FDA8045F8DB1AF80810002908
:102B3000F4D108E008F1010188468142FADB1AF875
:102B400008100029F6D105985B46A0EB080721463E
:102B50003846179A00F094FA284400EB080507E07D
:102B60004DE029E10DE01AF8010B5A4617999047FC
:102B7000B8F10108F7D25B4621463846179A13E1AF
:102B800042E00A220092C4F302524FF0000A022AE5
:102B900008D059F804CB032A4FEAEC710AD00DE0B3
:102BA00029E02AE009F1070121F00702F2E802C159
:102BB000914609E00FFA8CFC4FEAEC71042A03D12C
:102BC0004FFA8CFC4FEAEC71002907DA0A46002123
:102BD000DCF1000C61EB02012D2202E0220504D59C
:102BE0002B228DF80420012203E0E20701D02022ED
:102BF000F7E7904659E00A2102E010220DE010218B
:102C00004FF0000A00910BE010224FF0000A44F050
:102C100004040827009203E008224FF0000A009203
:102C2000C4F30252022A05D059F804CB0021032A2A
:102C300008D009E009F1070121F00702F2E802C11A
:102C4000914605E01FFA8CFC042A01D10CF0FF0C20
:102C50004FF00008220728D5702806D0009B83F08B
:102C6000100353EA0A0305D00EE040228DF8042039
:102C7000012208E05CEA010206D030228DF804202F
:102C80008DF8050002229046009B83F0080353EA6A
:102C90000A030AD15CEA010201D1620705D530229C
:102CA0008DF804204FF001087F1E582804D034A06E
:102CB00003900EA802900DE036A0F9E75346604657
:102CC000009AFDF751FE84460398825C0298401EEC
:102CD000029002705CEA0100F0D1029806A9081A7D
:102CE00000F1200A600702D524F4803400E00127B7
:102CF000574502DDA7EB0A0000E0002000EB0A01C7
:102D0000009005984144401A0590E00306D45B46C4
:102D10002146179A059800F0B3F90544002706E00C
:102D200001A85A46C05D179990476D1C7F1C474506
:102D3000F6DBE0030CD55B462146179A059800F0B8
:102D40009FF9054404E030205A46179990476D1CBE
:102D50000099481E00900029F5DC08E002980299CD
:102D60005A460078491C0291179990476D1CBAF198
:102D70000001AAF1010AF1DC65E100000928010067
:102D800030313233343536373839616263646566E1
:102D900000000000303132333435363738394142A3
:102DA000434445460000000000F058F90544761CF5
:102DB000307800287FF4ECAD19B02846BDE8F08FDC
:102DC000620700D4062709F1070222F0070CFCE88D
:102DD0000223E14603F000485FEA080C02D00FF23C
:102DE000702C0DE05FEA045C02D50FF2682C07E05E
:102DF0005FEAC47C02D00FF2602C01E0AFF2700CED
:102E00004FF0FF3823F00043CDF850C065280CD0B8
:102E100006DC452809D046281DD047283DD13DE095
:102E2000662818D067287ED138E00021112F01DBF9
:102E3000112000E0781CCDE9000106A90EA8FFF7DB
:102E4000D5FCDDE90F010E9A03910021009207F1F4
:102E5000010A04914DE04FF000400097CDE90110C8
:102E600006A90EA8FFF7C2FCDDE90F0203920E9B34
:102E700011990022DDF80CA00093049211B9791C7D
:102E800000EB010AB7EB0A0004D4C0F1FF3007F1F0
:102E9000010A0490AAEB0700019044E0012F00DA38
:102EA00001270021112F01DD112000E03846CDE976
:102EB000000106A90EA8FFF799FCDDE90F010E9AA3
:102EC0000391002104910092BA4621070CD4039982
:102ED000514500DA8A46BAF1010F05DD009AAAF1E0
:102EE0000101515C302908D0B84202DA10F1040F18
:102EF00006DA0121CDE9011015E0AAF10101E9E7A7
:102F0000002805DC049901440491AAEB000102E0C9
:102F1000411C514500DD8A460499401A401C01902D
:102F20004FF000400290200704D40198504501DB87
:102F3000CDF8048000208DF84F0002980DF14F0766
:102F4000B0F1004F25D02B200E9002984FF00208D0
:102F500000280CDA404202902D200E9007E00A2152
:102F60000298FDF7EBFC3031029007F8011DB8F133
:102F70000001A8F10108F2DC02980028EFD1791EC7
:102F80000E980870307800F0200040F0450007F8F7
:102F9000020D12A8C01B00F107081498007800B1B8
:102FA000012000EB0A01019801EBE0710598414412
:102FB000401A401E0590E00306D45B462146179A4E
:102FC000059800F05DF805441498007818B15A4649
:102FD000179990476D1CE00324D55B462146179A4C
:102FE000059800F04DF805441CE00498002807DB24
:102FF000DDE90301884203DD0098405C179901E098
:10300000179930205A469047049805F10105401C55
:1030100004900198401E019004D12E205A46179921
:1030200090476D1CBAF10001AAF1010ADDDC05E050
:1030300017F8010B5A46179990476D1CB8F100011B
:10304000A8F10108F4DC5B462146179A0598ABE627
:103050002D0000002B000000200000002DE9F041B1
:10306000044600251E461746880404D405E0394668
:103070002020B0476D1C641EF9D52846BDE8F081BC
:103080002DE9F041044600251E469046C80301D5AF
:10309000302700E02027880404D505E04146384663
:1030A000B0476D1C641EF9D52846BDE8F0810A685A
:1030B000531C0B6010707047002000BF03E000211C
:1030C000044A1154401C3228F9DB0021024A1170D5
:1030D00070470000DE0000205400002010B588B0CA
:1030E000044601210220FEF70BFD40200290022041
:1030F0008DF80C0001208DF80D0000208DF80E00D9
:103100008DF80F0002A92148FEF758FA802002909E
:1031100002A91E48FEF752FA01211020FEF710FD09
:1031200004940020ADF81400ADF81600ADF81800B6
:10313000ADF81C000C20ADF81A0004A91448FFF7E4
:10314000BDFA01211248FFF750FA072206210F4865
:10315000FEF77CFA072211460C48FEF777FA0122A7
:1031600040F225510A48FFF783FA25208DF8040024
:1031700004208DF8050003208DF8060001208DF84D
:10318000070001A8FEF71AFC08B010BD00040240B9
:103190000010014010B504460BE000210648FFF77F
:1031A000FAF800BF0448FFF700F8B0F57A7FF9D3CA
:1031B000641E002CF1D110BD0010004010B5044673
:1031C00000210548FFF7E7F800BF0348FEF7EDFFD1
:1031D000A042FAD310BD0000001000401CB5012130
:1031E0000420FEF78DFC01208DF804008DF8060008
:1031F0004FF44040009000208DF8070003208DF828
:10320000050069460648FEF7D9F94FF40041044825
:10321000FEF74AFA4FF480410148FEF745FA1CBD1B
:103220000008024070B505464FF400412448FEF7FF
:103230003BFA0320FFF7C2FF00261EE06006040EE3
:103240004FF480411E48FEF72FFA0320FFF7B6FF28
:103250004FF400411A48FEF71CFA08B144F001048B
:103260000220FFF7ABFF4FF480411548FEF71AFA32
:103270000520FFF7A3FF701CC6B2082EDEDB2DB1C0
:103280004FF400410E48FEF70DFA04E04FF4004100
:103290000B48FEF709FA0320FFF790FF4FF4804137
:1032A0000748FEF701FA0520FFF788FF4FF4804139
:1032B0000348FEF7F7F90520FFF780FF204670BDB1
:1032C0000008024010B54FF480410F48FEF7ECF9BA
:1032D0000320FFF773FF4FF400410B48FEF7E4F9BA
:1032E0000320FFF76BFF4FF400410748FEF7DAF9C0
:1032F0000320FFF763FF4FF480410348FEF7D2F944
:103300000320FFF75BFF10BD0008024010B54FF42B
:1033100000410B48FEF7C6F90320FFF74FFF4FF4BB
:1033200080410748FEF7C0F90320FFF747FF4FF43D
:1033300000410348FEF7B8F90320FFF73FFF10BD37
:103340000008024070B50446002624E004F0800026
:1033500028B14FF400412448FEF7A6F904E04FF4E9
:1033600000412148FEF79EF90320FFF727FF4FF4A5
:1033700080411D48FEF798F90520FFF71FFF4FF425
:1033800080411948FEF78EF90220FFF717FF60060B
:10339000040E701CC6B2082ED8DB4FF40041124850
:1033A000FEF782F90320FFF709FF4FF480410E4832
:1033B000FEF77AF90320FFF701FF4FF400410A48B6
:1033C000FEF767F908B1002500E001250220FFF7AC
:1033D000F5FE4FF480410448FEF764F90520FFF73D
:1033E000EDFE284670BD0000000802402DED028B66
:1033F0008CB0FEF71FFBFDF7CDFEFEF791F9012023
:10340000FEF75AF9FEF768F900210846FEF76DFA53
:103410008FA0FEF7C7F9FDF789FE00224FF48071F7
:103420008F48FEF743F9012280218D48FEF73EF9CF
:10343000FDF778FEFFF720F84FF4E130FFF74EFE7E
:1034400000F040F98749086000F03CF986490860BF
:10345000FDF75AFFFDF78EFFFDF7C4FF83480068B4
:103460004FF47A72B0FBF2F1481EB0F1807F00D3C6
:103470001BE0481E4FF0E022506150170F22002839
:1034800007DA13071D0E7A4B00F00F04241F1D5599
:1034900003E013071C0E774B1C5400BF00204FF0B5
:1034A000E02290610720106100BFFEF715F90021AE
:1034B0000846FEF71AFA66A0FEF774F96420FFF7D3
:1034C00069FEFEF709F9C1E001210020FEF70DFABF
:1034D00069A0FEF767F96A480068FDF700FA41EC59
:1034E000180B53EC182B67A16948FFF75BF907210C
:1034F0000020FEF7FAF96648FEF754F900F04CF99F
:10350000644890ED000AF7EE000AB4EE600AF1EEAE
:1035100010FA08D14FF400715F48FEF7C5F801209A
:103520005E49087007E04FF400715B48FEF7BAF897
:1035300000205A49087059480078012805D1012215
:1035400040214748FEF7B2F804E0002240214448F9
:10355000FEF7ACF852480078012804D151480078B1
:1035600008B9012000E000204F49087008460078A3
:1035700001280ED1012241023948FEF797F80022B6
:103580004FF480613648FEF791F8002046490870F4
:103590000DE0012291023248FEF788F800224FF434
:1035A00000712F48FEF782F801203F49087000F0B3
:1035B00089F82C490968401AB0F5967F46D3002453
:1035C00009E0002005A9085503A9085507A90855D1
:1035D00001A90855641C322CF3DB29480068FDF76B
:1035E0007EF941EC180B53EC182B30A105A8FFF71E
:1035F000D9F82D4802782FA103A8FFF7D3F82E4859
:1036000002782CA101A8FFF7CDF805A907A8FCF7BF
:10361000D7FD2AA107A8FCF7D3FD03A907A8FCF74B
:10362000CFFD26A107A8FCF7CBFD01A907A8FCF751
:10363000C7FD23A107A8FCF7C3FD012107A800F0DF
:10364000CDF800F03FF80749086000BF3CE70000F4
:10365000494E495449414C495A494E4721000000BE
:1036600000100240580000205C00002040000020B4
:1036700018ED00E000E400E053504545443A2000D6
:1036800008000020252E32662052504D0000000018
:10369000CA00002068000020000002408C000020CA
:1036A000A2000020A300002084000020252E326606
:1036B0000000000025640000280000202C0000000D
:1036C0000D0A00000148006870470000000000205B
:1036D000B0EE401A31EE600A254880ED000A254818
:1036E00090ED000A2248D0ED001A20EE210A22486F
:1036F00080ED000A214890ED000A1D48D0ED001A27
:103700009FED1F2A01EE820A1C4880ED000A18482E
:1037100090ED000A1B48D0ED001A30EE610A1A48FD
:10372000D0ED001A20EE210ADFED151A80EE212AD5
:10373000164880ED002A0E4890ED000A114880EDF1
:10374000000A0D4890ED000A1148D0ED001A0B4810
:1037500090ED002A01EE820A0C48D0ED001A30EEFE
:10376000210A0C4880ED000A90ED000A7047000025
:103770000C0000202C000020180000201C0000205D
:103780000AD7233C3C000020340000202000002009
:10379000300000201400002010B50E49087800EB1E
:1037A000D0714910A0EB410161B90122D1020A4850
:1037B000FDF77CFF4FF47A70FFF7ECFC0120054920
:1037C000087005E000224FF400610348FDF76EFF2A
:1037D00010BD0000A00000200010024070B504469B
:1037E0000D46012D0FD10BE014F8011B0648FEF722
:1037F000D4FF00BF40210448FEF703FF0028F9D0A2
:1038000020780028F0D170BD00100140DDDDDDDD45
:10381000DCBBBBDDDDDDDDDDDDDDDDDD9888888861
:103820008888888877777777778888888555555608
:10383000666666666666666666688888833333325F
:1038400022222222222222222228888D6C3800085D
:1038500000000020C0000000CC2700082C39000820
:10386000C000002050040000DC2700080000000019
:103870000000000000000000000000000100000047
:103880000000000000000000000000000000000038
:1038900000000000000000000000A040CDCCCC3DA6
:1038A000CDCCCC3D0000000000000000007A030AEF
:1038B00000000000000000000102030406070809E0
:1038C00000000000000000000000000000000000F8
:1038D000000000000000803F000000000000000029
:1038E00000000000000000000000000000000000D8
:1038F00000000000000000000000000000000000C8
:1039000000000000000000000000000001000001B5
:1039100000000000000000000000000000010203A1
:0C3920000401020304060708090000006F
:040000050800019D51
:00000001FF
